:100000000C9464000C948C000C948C000C942402CE
:100010000C9424020C9424020C948C000C948C00FC
:100020000C948C000C948C000C948C000C948C0020
:100030000C948C000C948C000C948C000C948C0010
:100040000C94B5030C948C000C9491060C94C3068C
:100050000C948C000C948C000C948C000C948C00F0
:100060000C948C000C948C0000000008000201002D
:100070000003040700000000000000000102040863
:100080001020408001020408102001020408102002
:10009000040404040404040402020202020203032E
:1000A00003030303000000002300260029000000D2
:1000B0000000250028002B0000000000240027007D
:1000C0002A002001F306270111241FBECFEFD8E03C
:1000D000DEBFCDBF11E0A0E0B1E0E4E6F9E102C08F
:1000E00005900D92AE33B107D9F722E0AEE3B1E04F
:1000F00001C01D92A934B207E1F710E0C6ECD0E0D0
:1001000004C02297FE010E94D009C23CD107C9F762
:100110000E9437070C94A50C0C9400000F931F93BA
:10012000CF93DF93CDB7DEB72A970FB6F894DEBF33
:100130000FBECDBF9F938F9381E091E09F938F93EC
:100140008E010F5F1F4F1F930F930E94D409B801B8
:1001500080E491E00E94840764E670E080E090E033
:100160000E9422040F900F900F900F900F900F900D
:100170002A960FB6F894DEBF0FBECDBFDF91CF91A8
:100180001F910F910895CF93DF93E091AC01F0910F
:10019000AD010190F081E02D63E68CEA91E00995D4
:1001A0008EE00E9497044AE050E0BC018CEA91E0A6
:1001B0000E942A088EE00E949704EC018EE00E94C3
:1001C0009704883E93409CF4BE01882777FD809574
:1001D000982F0E94760823EC35EF40E351E40E940B
:1001E00002090E944308603127E2720724F18FE080
:1001F00097E290933F0180933E0165E071E08CEAC5
:1002000091E00E94840760913E0170913F014AE0B5
:1002100050E08CEA91E00E942A0880913E01909182
:100220003F010E948E0068EE73E080E090E0DF9175
:10023000CF910C94220470933F0160933E01DDCF77
:1002400020E048E067E080E491E00C94F70280E46D
:1002500091E00C949E0226E040E855E260E070E0F8
:100260008CEA91E00E942F0640E855E260E070E0E1
:1002700080E491E00E94270366E780E491E00C941B
:1002800062012091A1013091A20128173907B9F428
:1002900090915F0180916001981789F0E0915F0172
:1002A000F0E0EF59FE4F808120915F0130E02F5F39
:1002B0003F4F2F73332720935F0190E008958FEF16
:1002C0009FEF08951F93CF93DF93DC015C968D9190
:1002D0009C915D97009749F481E090E013969C9380
:1002E0008E93129780E090E03BC05196ED91FC9187
:1002F000529750962C915097322F30951FB75E969B
:100300004C915E9741FB772770F941FD6095F89419
:100310004081772311F0422B01C043234083EC013D
:100320002197F1F748E0508160FF02C0522B01C0D5
:1003300053235083EC012197F1F76695415099F7CB
:100340008081772311F0832301C0822B80831FBF1C
:100350005C968D919C915D970197F1F781E090E01B
:10036000DF91CF911F91089508952091A1013091BF
:10037000A2012817390771F490915F018091600103
:10038000981741F0E0915F01F0E0EF59FE4F808156
:1003900090E008958FEF9FEF08952091A101309193
:1003A000A2012817390771F48091600120915F0143
:1003B00090E0805C9F4F821B910960E470E00E9496
:1003C0006509089580E090E00895E091A101F09121
:1003D000A201E817F90769F4A389B4899C9185897A
:1003E000809589238C931092A2011092A10181E043
:1003F000089580E00895CF93DF93EC018A8D9B8D63
:10040000892BF1F08091A1019091A2018C179D0799
:10041000B9F0009711F00E94E5018E8D8E7F8E8FCE
:100420001092600110925F01D093A201C093A101CC
:10043000EB89FC8980819D89892B808381E001C0C3
:1004400080E0DF91CF9108951F920F920FB60F9227
:1004500011242F933F934F935F936F937F938F93C9
:100460009F93AF93BF93EF93FF93E091A101F0911E
:10047000A201309709F451C0868DA685B785958570
:1004800081FF04C08C91892329F447C08C91892372
:1004900009F043C0A389B4899C91858980958923FB
:1004A0008C93868997890197F1F7208D318DA685E8
:1004B000B785758558E040E0C9010197F1F7842FB1
:1004C00090E095958795482F6C91672309F04068D7
:1004D000515091F7868D81FD40958091600190E0AB
:1004E00001968F73992720915F01281749F0A091F9
:1004F0006001B0E0AF59BE4F4C938093600103C0E0
:10050000868D8160868F828D938D0197F1F7A38907
:10051000B4898C919589892B8C93FF91EF91BF9130
:10052000AF919F918F917F916F915F914F913F918B
:100530002F910F900FBE0F901F90189521E131E081
:10054000FC01318320830C94E5011F93CF93DF934B
:10055000EC01162F6E8D6695617081E06827812F02
:100560000E94160561E0812F0E94DD04812F90E03A
:10057000FC01E458FF4FE491E88BFC01E057FF4F8A
:10058000E491F0E0EE0FFF1FE255FF4F859194914B
:100590009A8B898BDF91CF911F9108951F93CF93F1
:1005A000DF93EC01162F60E0812F0E94DD048E8D19
:1005B00081FD04C061E0812F0E9416051C87812FF8
:1005C00090E0FC01E458FF4FE491ED87FC01E05717
:1005D000FF4FE491F0E0EE0FFF1FEC55FF4F8591C8
:1005E00094919F878E87DF91CF911F910895FF92FD
:1005F0000F931F93CF93DF93EC01F62E522F1B82A4
:100600001A8208EE13E020E030E00C831D832E8375
:100610003F8381E191E0998388831F8A1E8A198E26
:10062000188E1B8E1A8E1D8E1C8E8E8D8E7F50FB0B
:1006300081F98E8F642FCE010E94A5026F2DCE010D
:10064000DF91CF911F910F91FF900C94CE02CF9329
:10065000DF93EC019A01AB011B8E1A8E198E188E56
:100660001F8A1E8A60E079E08DE390E00E949B097A
:10067000C9012430310520F0B9016350710902C06D
:1006800061E070E07D8F6C8FEC85E63108F068C02A
:10069000B901769567956431710518F06351710958
:1006A00002C061E070E07F8B6E8B069718F0C90185
:1006B000059702C081E090E0998F888FC901880F6B
:1006C000991F820F931F96958795969587958D30E4
:1006D000910510F00C9702C081E090E09B8F8A8F0B
:1006E00020916800E83050F091E0EE3008F490E09E
:1006F00081E001C0880F9A95EAF701C084E0822B5F
:10070000809368002C85283038F02E3040F0263158
:1007100048F48CE690E008C08DE690E005C08BE6DA
:1007200090E002C080E090E09C8B8B8B283030F40E
:1007300081E001C0880F2A95EAF70DC0822F90E072
:100740002E3010F4089701C00E9791E001C0990F68
:100750008A95EAF7892F8D8B8C8D9D8D0197F1F706
:10076000CE01DF91CF910C94FB011F920F920FB637
:100770000F9211242F933F938F939F93AF93BF9327
:100780008091A4019091A501A091A601B091A7012B
:100790003091A30123E0230F2D3720F40196A11DF2
:1007A000B11D05C026E8230F0296A11DB11D20939F
:1007B000A3018093A4019093A501A093A601B093F7
:1007C000A7018091A8019091A901A091AA01B091DF
:1007D000AB010196A11DB11D8093A8019093A901C1
:1007E000A093AA01B093AB01BF91AF919F918F915C
:1007F0003F912F910F900FBE0F901F9018953FB70C
:10080000F8948091A8019091A901A091AA01B091BA
:10081000AB0126B5A89B05C02F3F19F00196A11D7D
:10082000B11D3FBF6627782F892F9A2F620F711D48
:10083000811D911D42E0660F771F881F991F4A9501
:10084000D1F708958F929F92AF92BF92CF92DF928D
:10085000EF92FF926B017C010E94FF034B015C0150
:10086000C114D104E104F104F1F00E9442080E9495
:10087000FF03681979098A099B09683E734081055D
:10088000910570F321E0C21AD108E108F10888EE61
:10089000880E83E0981EA11CB11CC114D104E10490
:1008A000F10429F7DDCFFF90EF90DF90CF90BF905C
:1008B000AF909F908F900895789484B5826084BDA6
:1008C00084B5816084BD85B5826085BD85B5816054
:1008D00085BDEEE6F0E0808181608083E1E8F0E0B4
:1008E0001082808182608083808181608083E0E8E3
:1008F000F0E0808181608083E1EBF0E080818460C2
:100900008083E0EBF0E0808181608083EAE7F0E0C3
:100910008081846080838081826080838081816027
:1009200080838081806880831092C10008958E301A
:1009300008F08E5087702091000190E4299F90016B
:100940001124822B80937C0080917A0080648093B4
:100950007A0080917A0086FDFCCF8091780020910A
:10096000790090E0922B0895833081F028F4813053
:1009700099F08230A1F008958730A9F08830B9F05D
:100980008430D1F4809180008F7D03C080918000FD
:100990008F7780938000089584B58F7702C084B5E7
:1009A0008F7D84BD08958091B0008F7703C08091C2
:1009B000B0008F7D8093B0000895CF93DF9390E0D7
:1009C000FC01E458FF4F2491FC01E057FF4F849154
:1009D000882349F190E0880F991FFC01E854FF4FEC
:1009E000A591B49182559F4FFC01C591D4919FB7B9
:1009F000611108C0F8948C91209582238C93888192
:100A000082230AC0623051F4F8948C91322F3095D1
:100A100083238C938881822B888304C0F8948C91E3
:100A2000822B8C939FBFDF91CF9108950F931F93DB
:100A3000CF93DF931F92CDB7DEB7282F30E0F901B7
:100A4000E859FF4F8491F901E458FF4F1491F901DF
:100A5000E057FF4F04910023C9F0882321F06983F8
:100A60000E94B4046981E02FF0E0EE0FFF1FE25511
:100A7000FF4FA591B4919FB7F8948C91611103C079
:100A80001095812301C0812B8C939FBF0F90DF9124
:100A9000CF911F910F910895FC01818D228D90E0DF
:100AA000805C9F4F821B91098F7399270895FC01E9
:100AB000918D828D981731F0828DE80FF11D858D13
:100AC00090E008958FEF9FEF0895FC01918D828D46
:100AD000981761F0828DDF01A80FB11D5D968C9192
:100AE000928D9F5F9F73928F90E008958FEF9FEF9D
:100AF000089589EE96E0892B49F080E090E0892BFB
:100B000029F00E94E90681110C9400000895FC016F
:100B1000848DDF01A80FB11DA35ABF4F2C91848D86
:100B200090E001968F739927848FA689B7892C93BB
:100B3000A089B1898C9180648C93938D848D981356
:100B400006C00288F389E02D80818F7D808308951F
:100B5000CF93DF93EC01888D8823C9F0EA89FB8964
:100B6000808185FD05C0A889B9898C9186FD0FC05B
:100B70000FB607FCF5CF808185FFF2CFA889B98930
:100B80008C9185FFEDCFCE010E948705E7CFDF91E5
:100B9000CF910895CF92DF92FF920F931F93CF933F
:100BA000DF931F92CDB7DEB76C0181E0D601589676
:100BB0008C9358975B969C915B975C968C915C9715
:100BC000981307C05096ED91FC915197808185FD57
:100BD0002EC0F601038D10E00F5F1F4F0F7311271A
:100BE000F02EF601848DF81211C00FB607FCF9CF74
:100BF000D6015096ED91FC915197808185FFF1CF00
:100C0000C60169830E9487056981EBCF838DE80F58
:100C1000F11DE35AFF4F6083D6015B960C935B97FF
:100C20005296ED91FC915397808180620CC0D60161
:100C30005696ED91FC91579760835096ED91FC91FB
:100C4000519780818064808381E090E00F90DF91F4
:100C5000CF911F910F91FF90DF90CF900895BF9299
:100C6000CF92DF92EF92FF92CF93DF93EC016A0174
:100C70007B01B22EE889F98982E08083411581EEFB
:100C8000580761057105A1F060E079E08DE390E01F
:100C9000A70196010E9479092150310941095109A2
:100CA0005695479537952795211580E1380798F097
:100CB000E889F989108260E874E88EE190E0A70184
:100CC00096010E947909215031094109510956952F
:100CD000479537952795EC85FD853083EE85FF8513
:100CE0002083188EEC89FD89B082EA89FB89808196
:100CF00080618083EA89FB89808188608083EA89BA
:100D0000FB89808180688083EA89FB8980818F7D6F
:100D10008083DF91CF91FF90EF90DF90CF90BF90D5
:100D200008951F920F920FB60F9211242F938F9355
:100D30009F93EF93FF93E091BC01F091BD018081FF
:100D4000E091C201F091C30182FD12C090818091B7
:100D5000C5018F5F8F732091C601821751F0E0911A
:100D6000C501F0E0E455FE4F958F8093C50101C0A9
:100D70008081FF91EF919F918F912F910F900FBEE6
:100D80000F901F9018951F920F920FB60F9211247B
:100D90002F933F934F935F936F937F938F939F9383
:100DA000AF93BF93EF93FF938CEA91E00E94870586
:100DB000FF91EF91BF91AF919F918F917F916F9133
:100DC0005F914F913F912F910F900FBE0F901F9009
:100DD00018958CEA91E00E944C0521E0892B09F4DA
:100DE00020E0822F08951092AF011092AE0188EE9C
:100DF00093E0A0E0B0E08093B0019093B101A093A4
:100E0000B201B093B30181E291E09093AD01809380
:100E1000AC0185EC90E09093B9018093B80184EC2B
:100E200090E09093BB018093BA0180EC90E09093A6
:100E3000BD018093BC0181EC90E09093BF01809351
:100E4000BE0182EC90E09093C1018093C00186ECDA
:100E500090E09093C3018093C2011092C50110925B
:100E6000C6011092C7011092C801089508950E940A
:100E70005C040E9436070E942B01C9E7D5E00E945E
:100E8000C3002097E1F30E947905F9CFCF92DF925A
:100E9000EF92FF920F931F93CF93DF937C016A0130
:100EA000EB0100E010E00C151D0571F06991D70110
:100EB000ED91FC910190F081E02DC7010995892BFE
:100EC00019F00F5F1F4FEFCFC801DF91CF911F9136
:100ED0000F91FF90EF90DF90CF900895611571050D
:100EE00081F0DB010D900020E9F7AD01415051097F
:100EF000461B570BDC01ED91FC910280F381E02D44
:100F0000099480E090E008950C946E07DC01ED9167
:100F1000FC910190F081E02D09946DE271E00C9458
:100F20006E078F929F92AF92BF92DF92EF92FF92E5
:100F30000F931F93CF93DF93CDB7DEB7A1970FB673
:100F4000F894DEBF0FBECDBF7C01F42FD52ECB01B0
:100F500019A2223008F42AE08E010F5D1F4F822E65
:100F6000912CA12CB12C6F2F7D2DA50194010E94F5
:100F70007909F22FD32ECA01015011096A3014F4F5
:100F8000E0E301C0E7E3E60FD801EC93232B242B29
:100F9000252B49F7B801C7010E946E07A1960FB62D
:100FA000F894DEBF0FBECDBFDF91CF911F910F919F
:100FB000FF90EF90DF90BF90AF909F908F9008953B
:100FC000CF92DF92EF92FF920F931F93CF93DF9315
:100FD000EC016A017B012115310579F4E881F98181
:100FE0000190F081E02D642FDF91CF911F910F913F
:100FF000FF90EF90DF90CF9009942A303105E9F40B
:1010000077FF1AC06DE20E9486078C01442755279E
:10101000BA014C195D096E097F092AE0CE010E94D0
:101020009107800F911FDF91CF911F910F91FF903A
:10103000EF90DF90CF9008952AE0B701A601CE018E
:10104000DF91CF911F910F91FF90EF90DF90CF90A4
:101050000C9491070F931F93CF93DF93EC019A01A8
:10106000AB01662757FD6095762F0E94E0078C0143
:10107000CE010E948D07800F911FDF91CF911F91AC
:101080000F910895089504D06894B111B5C00895E2
:1010900098D088F09F5790F0B92F9927B751A0F0BA
:1010A000D1F0660F771F881F991F1AF0BA95C9F7FC
:1010B00012C0B13081F09FD0B1E008959CC0672F7D
:1010C000782F8827B85F39F0B93FCCF386957795AC
:1010D0006795B395D9F73EF4909580957095619595
:1010E0007F4F8F4F9F4F0895E89409C097FB3EF4C0
:1010F00090958095709561957F4F8F4F9F4F992365
:10110000A9F0F92F96E9BB279395F69587957795E2
:101110006795B795F111F8CFFAF4BB0F11F460FFA2
:101120001BC06F5F7F4F8F4F9F4F16C0882311F0FA
:1011300096E911C0772321F09EE8872F762F05C00E
:10114000662371F096E8862F70E060E02AF09A95A9
:10115000660F771F881FDAF7880F9695879597F99E
:10116000089597F99F6780E870E060E008959FEF29
:1011700080EC089500240A9416161706180609062E
:10118000089500240A9412161306140605060895FD
:10119000092E0394000C11F4882352F0BB0F40F485
:1011A000BF2B11F460FF04C06F5F7F4F8F4F9F4FC5
:1011B000089557FD9058440F551F59F05F3F71F047
:1011C0004795880F97FB991F61F09F3F79F08795AE
:1011D0000895121613061406551FF2CF4695F1DF37
:1011E00008C0161617061806991FF1CF86957105C7
:1011F000610508940895E894BB2766277727CB01FB
:1012000097F908950BD0C4CFB5DF28F0BADF18F0F6
:10121000952309F0A6CFABCF1124EECFCADFA0F300
:10122000959FD1F3950F50E0551F629FF001729F7B
:10123000BB27F00DB11D639FAA27F00DB11DAA1F9A
:10124000649F6627B00DA11D661F829F2227B00DE7
:10125000A11D621F739FB00DA11D621F839FA00D72
:10126000611D221F749F3327A00D611D231F849FC2
:10127000600D211D822F762F6A2F11249F57504019
:101280008AF0E1F088234AF0EE0FFF1FBB1F661FB4
:10129000771F881F91505040A9F79E3F510570F06D
:1012A00060CFAACF5F3FECF3983EDCF3869577954D
:1012B0006795B795F795E7959F5FC1F7FE2B880F68
:1012C000911D9695879597F9089597FB072E16F42B
:1012D000009407D077FD09D00E94BA0907FC05D019
:1012E0003EF4909581959F4F0895709561957F4F3D
:1012F0000895A1E21A2EAA1BBB1BFD010DC0AA1F57
:10130000BB1FEE1FFF1FA217B307E407F50720F06E
:10131000A21BB30BE40BF50B661F771F881F991FE9
:101320001A9469F760957095809590959B01AC0132
:10133000BD01CF010895052E97FB1EF400940E9475
:10134000B20957FD07D00E94790907FC03D04EF47B
:101350000C94B20950954095309521953F4F4F4FD1
:101360005F4F089590958095709561957F4F8F4F51
:101370009F4F0895AA1BBB1B51E107C0AA1FBB1FAB
:10138000A617B70710F0A61BB70B881F991F5A9511
:10139000A9F780959095BC01CD010895EE0FFF1F30
:1013A0000590F491E02D0994AEE0B0E0EAEDF9E0AB
:1013B0000C947C0C0D891E8986E08C831A8309832A
:1013C0008FEF9FE79E838D83AE01475E5F4F6F89EE
:1013D000788DCE0101960E94F609EF81F885E00F25
:1013E000F11F10822E96E4E00C94980CACE0B0E073
:1013F000ECEFF9E00C946E0C7C016B018A01FC01AE
:1014000017821682838181FFBDC1CE0101964C01F6
:10141000F7019381F60193FD859193FF81916F010F
:10142000882309F4ABC1853239F493FD859193FF8C
:1014300081916F01853229F4B70190E00E94DE0BA3
:10144000E7CF512C312C20E02032A0F48B3269F010
:1014500030F4803259F0833269F420612CC08D322F
:1014600039F0803339F4216026C02260246023C023
:10147000286021C027FD27C030ED380F3A3078F4BE
:1014800026FF06C0FAE05F9E300D1124532E13C0D4
:101490008AE0389E300D1124332E20620CC08E322B
:1014A00021F426FD6BC1206406C08C3611F420683F
:1014B00002C0883641F4F60193FD859193FF819136
:1014C0006F018111C1CF982F9F7D9554933028F4DF
:1014D0000C5F1F4FFFE3F9830DC0833631F0833774
:1014E00071F0833509F05BC022C0F80180818983E7
:1014F0000E5F1F4F44244394512C540115C03801F2
:10150000F2E06F0E711CF801A080B18026FF03C0CD
:10151000652D70E002C06FEF7FEFC5012C870E9440
:10152000D30B2C0183012C852F77222E17C0380175
:10153000F2E06F0E711CF801A080B18026FF03C09D
:10154000652D70E002C06FEF7FEFC5012C870E9410
:10155000C80B2C012C852068222E830123FC1BC084
:10156000832D90E048165906B0F4B70180E290E070
:101570000E94DE0B3A94F4CFF50127FC859127FEFB
:1015800081915F01B70190E00E94DE0B31103A9427
:10159000F1E04F1A51084114510471F7E5C0843647
:1015A00011F0893639F5F80127FF07C06081718194
:1015B000828193810C5F1F4F08C0608171818827F1
:1015C00077FD8095982F0E5F1F4F2F76B22E97FFD5
:1015D00009C090958095709561957F4F8F4F9F4F73
:1015E0002068B22E2AE030E0A4010E94100CA82E40
:1015F000A81844C0853729F42F7EB22E2AE030E0A7
:1016000025C0F22FF97FBF2E8F36C1F018F4883530
:1016100079F0B4C0803719F0883721F0AFC02F2F90
:101620002061B22EB4FE0DC08B2D8460B82E09C08F
:1016300024FF0AC09F2F9660B92E06C028E030E034
:1016400005C020E130E002C020E132E0F801B7FE41
:1016500007C060817181828193810C5F1F4F06C03A
:101660006081718180E090E00E5F1F4FA4010E94B5
:10167000100CA82EA818FB2DFF77BF2EB6FE0BC0AE
:101680002B2D2E7FA51450F4B4FE0AC0B2FC08C066
:101690002B2D2E7E05C07A2C2B2D03C07A2C01C059
:1016A000752C24FF0DC0FE01EA0DF11D80818033F1
:1016B00011F4297E09C022FF06C07394739404C0FC
:1016C000822F867809F0739423FD13C020FF06C093
:1016D0005A2C731418F4530C5718732C731468F4A1
:1016E000B70180E290E02C870E94DE0B73942C857A
:1016F000F5CF731410F4371801C0312C24FF12C039
:10170000B70180E390E02C870E94DE0B2C8522FF3E
:1017100017C021FF03C088E590E002C088E790E091
:10172000B7010CC0822F867859F021FD02C080E2FB
:1017300001C08BE227FD8DE2B70190E00E94DE0B35
:10174000A51438F4B70180E390E00E94DE0B5A94B0
:10175000F7CFAA94F401EA0DF11D8081B70190E062
:101760000E94DE0BA110F5CF332009F451CEB70152
:1017700080E290E00E94DE0B3A94F6CFF70186817A
:10178000978102C08FEF9FEF2C96E2E10C948A0CB8
:10179000FC010590615070400110D8F7809590953C
:1017A0008E0F9F1F0895FC01615070400190011041
:1017B000D8F7809590958E0F9F1F08950F931F93D4
:1017C000CF93DF93182F092FEB018B8181FD03C08D
:1017D0008FEF9FEF20C082FF10C04E815F812C8170
:1017E0003D81421753077CF4E881F9819F012F5F07
:1017F0003F4F39832883108306C0E885F985812F00
:101800000995892B29F72E813F812F5F3F4F3F8319
:101810002E83812F902FDF91CF911F910F910895EB
:10182000FA01AA27283051F1203181F1E8946F9311
:101830006E7F6E5F7F4F8F4F9F4FAF4FB1E03ED0B7
:10184000B4E03CD0670F781F891F9A1FA11D680F55
:10185000791F8A1F911DA11D6A0F711D811D911D88
:10186000A11D20D009F468943F912AE0269F1124FD
:101870003019305D3193DEF6CF010895462F477061
:10188000405D4193B3E00FD0C9F7F6CF462F4F70BC
:10189000405D4A3318F0495D31FD4052419302D01A
:1018A000A9F7EACFB4E0A6959795879577956795C0
:1018B000BA95C9F700976105710508959B01AC01C0
:1018C0000A2E06945795479537952795BA95C9F7E7
:1018D000620F731F841F951FA01D08952F923F92C2
:1018E0004F925F926F927F928F929F92AF92BF9230
:1018F000CF92DF92EF92FF920F931F93CF93DF93DC
:10190000CDB7DEB7CA1BDB0B0FB6F894DEBF0FBE38
:10191000CDBF09942A88398848885F846E847D8485
:101920008C849B84AA84B984C884DF80EE80FD8087
:101930000C811B81AA81B981CE0FD11D0FB6F894FD
:10194000DEBF0FBECDBFED01089510E0C6ECD0E0C4
:1019500004C0FE010E94D0092296C83CD107C9F7F5
:04196000F894FFCF29
:1019640001253464004379636C653A20000000006B
:101974000062014607CD014101B501B40100000038
:1019840000CA0546074C0565055705A8050D0A005C
:0E1994006E616E00696E66006F7666002E0052
:00000001FF
